{
  "_format": "hh-sol-artifact-1",
  "contractName": "CropCircle",
  "sourceName": "contracts/CropCircle.sol",
  "abi": [
    {
      "inputs": [],
      "stateMutability": "nonpayable",
      "type": "constructor"
    },
    {
      "anonymous": false,
      "inputs": [
        {
          "indexed": true,
          "internalType": "bytes32",
          "name": "eventId",
          "type": "bytes32"
        },
        {
          "indexed": false,
          "internalType": "uint256",
          "name": "startTime",
          "type": "uint256"
        },
        {
          "indexed": false,
          "internalType": "uint256",
          "name": "endTime",
          "type": "uint256"
        },
        {
          "indexed": false,
          "internalType": "string",
          "name": "eventUri",
          "type": "string"
        }
      ],
      "name": "EventCreated",
      "type": "event"
    },
    {
      "anonymous": false,
      "inputs": [
        {
          "indexed": true,
          "internalType": "bytes32",
          "name": "eventId",
          "type": "bytes32"
        },
        {
          "indexed": false,
          "internalType": "uint256",
          "name": "winningMemeId",
          "type": "uint256"
        },
        {
          "indexed": false,
          "internalType": "address",
          "name": "tokenAddress",
          "type": "address"
        }
      ],
      "name": "EventEnded",
      "type": "event"
    },
    {
      "anonymous": false,
      "inputs": [
        {
          "indexed": true,
          "internalType": "bytes32",
          "name": "eventId",
          "type": "bytes32"
        },
        {
          "indexed": true,
          "internalType": "uint256",
          "name": "memeId",
          "type": "uint256"
        },
        {
          "indexed": false,
          "internalType": "address",
          "name": "creator",
          "type": "address"
        },
        {
          "indexed": false,
          "internalType": "string",
          "name": "name",
          "type": "string"
        },
        {
          "indexed": false,
          "internalType": "string",
          "name": "imageHash",
          "type": "string"
        }
      ],
      "name": "MemeSubmitted",
      "type": "event"
    },
    {
      "anonymous": false,
      "inputs": [
        {
          "indexed": true,
          "internalType": "address",
          "name": "previousOwner",
          "type": "address"
        },
        {
          "indexed": true,
          "internalType": "address",
          "name": "newOwner",
          "type": "address"
        }
      ],
      "name": "OwnershipTransferred",
      "type": "event"
    },
    {
      "anonymous": false,
      "inputs": [
        {
          "indexed": true,
          "internalType": "bytes32",
          "name": "eventId",
          "type": "bytes32"
        },
        {
          "indexed": true,
          "internalType": "uint256",
          "name": "memeId",
          "type": "uint256"
        },
        {
          "indexed": false,
          "internalType": "address",
          "name": "voter",
          "type": "address"
        },
        {
          "indexed": false,
          "internalType": "bool",
          "name": "isUpvote",
          "type": "bool"
        }
      ],
      "name": "VoteCast",
      "type": "event"
    },
    {
      "anonymous": false,
      "inputs": [
        {
          "indexed": true,
          "internalType": "bytes32",
          "name": "eventId",
          "type": "bytes32"
        },
        {
          "indexed": true,
          "internalType": "uint256",
          "name": "memeId",
          "type": "uint256"
        },
        {
          "indexed": false,
          "internalType": "uint256",
          "name": "upvotes",
          "type": "uint256"
        },
        {
          "indexed": false,
          "internalType": "uint256",
          "name": "downvotes",
          "type": "uint256"
        }
      ],
      "name": "VoteStatusUpdated",
      "type": "event"
    },
    {
      "inputs": [],
      "name": "INITIAL_CROP_AMOUNT",
      "outputs": [
        {
          "internalType": "uint256",
          "name": "",
          "type": "uint256"
        }
      ],
      "stateMutability": "view",
      "type": "function"
    },
    {
      "inputs": [],
      "name": "SUBMISSION_COST",
      "outputs": [
        {
          "internalType": "uint256",
          "name": "",
          "type": "uint256"
        }
      ],
      "stateMutability": "view",
      "type": "function"
    },
    {
      "inputs": [],
      "name": "TOTAL_TOKEN_SUPPLY",
      "outputs": [
        {
          "internalType": "uint256",
          "name": "",
          "type": "uint256"
        }
      ],
      "stateMutability": "view",
      "type": "function"
    },
    {
      "inputs": [],
      "name": "VOTE_COST",
      "outputs": [
        {
          "internalType": "uint256",
          "name": "",
          "type": "uint256"
        }
      ],
      "stateMutability": "view",
      "type": "function"
    },
    {
      "inputs": [
        {
          "internalType": "uint256",
          "name": "_duration",
          "type": "uint256"
        },
        {
          "internalType": "string",
          "name": "_eventUri",
          "type": "string"
        }
      ],
      "name": "createEvent",
      "outputs": [
        {
          "internalType": "bytes32",
          "name": "",
          "type": "bytes32"
        }
      ],
      "stateMutability": "nonpayable",
      "type": "function"
    },
    {
      "inputs": [
        {
          "internalType": "bytes32",
          "name": "_eventId",
          "type": "bytes32"
        }
      ],
      "name": "endEvent",
      "outputs": [],
      "stateMutability": "nonpayable",
      "type": "function"
    },
    {
      "inputs": [
        {
          "internalType": "bytes32",
          "name": "",
          "type": "bytes32"
        },
        {
          "internalType": "uint256",
          "name": "",
          "type": "uint256"
        }
      ],
      "name": "eventMemeIds",
      "outputs": [
        {
          "internalType": "uint256",
          "name": "",
          "type": "uint256"
        }
      ],
      "stateMutability": "view",
      "type": "function"
    },
    {
      "inputs": [
        {
          "internalType": "bytes32",
          "name": "",
          "type": "bytes32"
        }
      ],
      "name": "events",
      "outputs": [
        {
          "internalType": "uint256",
          "name": "startTime",
          "type": "uint256"
        },
        {
          "internalType": "uint256",
          "name": "endTime",
          "type": "uint256"
        },
        {
          "internalType": "string",
          "name": "eventUri",
          "type": "string"
        },
        {
          "internalType": "bool",
          "name": "active",
          "type": "bool"
        },
        {
          "internalType": "uint256",
          "name": "memeCount",
          "type": "uint256"
        },
        {
          "internalType": "uint256",
          "name": "winningMemeId",
          "type": "uint256"
        },
        {
          "internalType": "address",
          "name": "tokenAddress",
          "type": "address"
        }
      ],
      "stateMutability": "view",
      "type": "function"
    },
    {
      "inputs": [
        {
          "internalType": "bytes32",
          "name": "_eventId",
          "type": "bytes32"
        }
      ],
      "name": "getEventDetails",
      "outputs": [
        {
          "internalType": "uint256",
          "name": "startTime",
          "type": "uint256"
        },
        {
          "internalType": "uint256",
          "name": "endTime",
          "type": "uint256"
        },
        {
          "internalType": "string",
          "name": "eventUri",
          "type": "string"
        },
        {
          "internalType": "bool",
          "name": "active",
          "type": "bool"
        },
        {
          "internalType": "uint256",
          "name": "memeCount",
          "type": "uint256"
        },
        {
          "internalType": "uint256",
          "name": "winningMemeId",
          "type": "uint256"
        },
        {
          "internalType": "address",
          "name": "tokenAddress",
          "type": "address"
        }
      ],
      "stateMutability": "view",
      "type": "function"
    },
    {
      "inputs": [
        {
          "internalType": "bytes32",
          "name": "_eventId",
          "type": "bytes32"
        },
        {
          "internalType": "uint256",
          "name": "_memeId",
          "type": "uint256"
        }
      ],
      "name": "getMemeDetails",
      "outputs": [
        {
          "internalType": "string",
          "name": "name",
          "type": "string"
        },
        {
          "internalType": "string",
          "name": "imageHash",
          "type": "string"
        },
        {
          "internalType": "string",
          "name": "description",
          "type": "string"
        },
        {
          "internalType": "address",
          "name": "creator",
          "type": "address"
        },
        {
          "internalType": "uint256",
          "name": "upvotes",
          "type": "uint256"
        },
        {
          "internalType": "uint256",
          "name": "downvotes",
          "type": "uint256"
        },
        {
          "internalType": "uint256",
          "name": "timestamp",
          "type": "uint256"
        },
        {
          "internalType": "bool",
          "name": "exists",
          "type": "bool"
        }
      ],
      "stateMutability": "view",
      "type": "function"
    },
    {
      "inputs": [
        {
          "internalType": "bytes32",
          "name": "_eventId",
          "type": "bytes32"
        },
        {
          "internalType": "bool",
          "name": "sortByUpvotes",
          "type": "bool"
        }
      ],
      "name": "getMemesSorted",
      "outputs": [
        {
          "internalType": "uint256[]",
          "name": "",
          "type": "uint256[]"
        }
      ],
      "stateMutability": "view",
      "type": "function"
    },
    {
      "inputs": [
        {
          "internalType": "bytes32",
          "name": "_eventId",
          "type": "bytes32"
        }
      ],
      "name": "getWinningMeme",
      "outputs": [
        {
          "internalType": "uint256",
          "name": "",
          "type": "uint256"
        }
      ],
      "stateMutability": "view",
      "type": "function"
    },
    {
      "inputs": [
        {
          "internalType": "bytes32",
          "name": "",
          "type": "bytes32"
        },
        {
          "internalType": "uint256",
          "name": "",
          "type": "uint256"
        }
      ],
      "name": "memes",
      "outputs": [
        {
          "internalType": "string",
          "name": "name",
          "type": "string"
        },
        {
          "internalType": "string",
          "name": "imageHash",
          "type": "string"
        },
        {
          "internalType": "string",
          "name": "description",
          "type": "string"
        },
        {
          "internalType": "address",
          "name": "creator",
          "type": "address"
        },
        {
          "internalType": "uint256",
          "name": "upvotes",
          "type": "uint256"
        },
        {
          "internalType": "uint256",
          "name": "downvotes",
          "type": "uint256"
        },
        {
          "internalType": "uint256",
          "name": "timestamp",
          "type": "uint256"
        },
        {
          "internalType": "bool",
          "name": "exists",
          "type": "bool"
        }
      ],
      "stateMutability": "view",
      "type": "function"
    },
    {
      "inputs": [],
      "name": "owner",
      "outputs": [
        {
          "internalType": "address",
          "name": "",
          "type": "address"
        }
      ],
      "stateMutability": "view",
      "type": "function"
    },
    {
      "inputs": [],
      "name": "renounceOwnership",
      "outputs": [],
      "stateMutability": "nonpayable",
      "type": "function"
    },
    {
      "inputs": [
        {
          "internalType": "bytes32",
          "name": "_eventId",
          "type": "bytes32"
        },
        {
          "internalType": "string",
          "name": "_name",
          "type": "string"
        },
        {
          "internalType": "string",
          "name": "_imageHash",
          "type": "string"
        },
        {
          "internalType": "string",
          "name": "_description",
          "type": "string"
        }
      ],
      "name": "submitMeme",
      "outputs": [],
      "stateMutability": "nonpayable",
      "type": "function"
    },
    {
      "inputs": [
        {
          "internalType": "address",
          "name": "newOwner",
          "type": "address"
        }
      ],
      "name": "transferOwnership",
      "outputs": [],
      "stateMutability": "nonpayable",
      "type": "function"
    },
    {
      "inputs": [
        {
          "internalType": "address",
          "name": "",
          "type": "address"
        },
        {
          "internalType": "bytes32",
          "name": "",
          "type": "bytes32"
        }
      ],
      "name": "userCropBalance",
      "outputs": [
        {
          "internalType": "uint256",
          "name": "",
          "type": "uint256"
        }
      ],
      "stateMutability": "view",
      "type": "function"
    },
    {
      "inputs": [
        {
          "internalType": "bytes32",
          "name": "",
          "type": "bytes32"
        },
        {
          "internalType": "uint256",
          "name": "",
          "type": "uint256"
        },
        {
          "internalType": "address",
          "name": "",
          "type": "address"
        }
      ],
      "name": "userVotes",
      "outputs": [
        {
          "internalType": "int8",
          "name": "",
          "type": "int8"
        }
      ],
      "stateMutability": "view",
      "type": "function"
    },
    {
      "inputs": [
        {
          "internalType": "bytes32",
          "name": "_eventId",
          "type": "bytes32"
        },
        {
          "internalType": "uint256",
          "name": "_memeId",
          "type": "uint256"
        },
        {
          "internalType": "bool",
          "name": "_isUpvote",
          "type": "bool"
        }
      ],
      "name": "vote",
      "outputs": [],
      "stateMutability": "nonpayable",
      "type": "function"
    }
  ],
  "bytecode": "0x608060405234801561001057600080fd5b5061001a33610023565b60018055610073565b600080546001600160a01b038381166001600160a01b0319831681178455604051919092169283917f8be0079c531659141344cd1fd0a4f28419497f9722a3daafe3b4186f6b6457e09190a35050565b6134d3806100826000396000f3fe60806040523480156200001157600080fd5b5060043610620001455760003560e01c806396df4a9511620000bb578063dc5b6a20116200007a578063dc5b6a20146200031e578063edc9270a1462000327578063f2fde38b146200034d578063fcc5ab8d1462000364578063fe71b8ba146200036d57600080fd5b806396df4a9514620002a0578063a1d255e114620002b7578063bfdc4a6114620002ce578063ccf053ba14620002e5578063d83edf9214620002f057600080fd5b806366158ac8116200010857806366158ac8146200020257806366886b1a146200021957806370d6e3411462000230578063715018a6146200027a5780638da5cb5b146200028457600080fd5b8063201e6abc146200014a5780632b0b1c4914620001805780632c729fd114620001995780632ca1089814620001b05780632caef7a814620001dc575b600080fd5b620001616200015b36600462001f84565b62000376565b6040516200017798979695949392919062001ffb565b60405180910390f35b620001976200019136600462002074565b620005b7565b005b62000197620001aa3660046200209d565b62000a0c565b620001c7620001c136600462002074565b62000e0b565b604051620001779796959493929190620020d9565b620001f3620001ed36600462001f84565b62000f1d565b60405190815260200162000177565b620001616200021336600462001f84565b62000f4f565b620001f36200022a36600462002074565b62001158565b620002666200024136600462002146565b6005602090815260009384526040808520825292845282842090528252812054900b81565b60405160009190910b815260200162000177565b62000197620011dd565b6000546040516001600160a01b03909116815260200162000177565b62000197620002b136600462002229565b620011f5565b620001f3620002c8366004620022c5565b6200159a565b620001c7620002df36600462002074565b62001795565b620001f3620186a081565b620001f36200030136600462002310565b600460209081526000928352604080842090915290825290205481565b620001f3606481565b6200033e620003383660046200233d565b62001870565b60405162000177919062002370565b620001976200035e366004620023b6565b62001b88565b620001f3603c81565b620001f3600181565b600082815260036020818152604080842085855290915282209081015460048201546005830154600684015460078501548554606097889788979196879687968796879694958695600187019560028801956001600160a01b03909316949093909160ff909116908890620003eb90620023db565b80601f01602080910402602001604051908101604052809291908181526020018280546200041990620023db565b80156200046a5780601f106200043e576101008083540402835291602001916200046a565b820191906000526020600020905b8154815290600101906020018083116200044c57829003601f168201915b505050505097508680546200047f90620023db565b80601f0160208091040260200160405190810160405280929190818152602001828054620004ad90620023db565b8015620004fe5780601f10620004d257610100808354040283529160200191620004fe565b820191906000526020600020905b815481529060010190602001808311620004e057829003601f168201915b505050505096508580546200051390620023db565b80601f01602080910402602001604051908101604052809291908181526020018280546200054190620023db565b8015620005925780601f10620005665761010080835404028352916020019162000592565b820191906000526020600020905b8154815290600101906020018083116200057457829003601f168201915b5050505050955098509850985098509850985098509850509295985092959890939650565b620005c162001c07565b6000818152600260205260409020600381015460ff16620005ff5760405162461bcd60e51b8152600401620005f69062002417565b60405180910390fd5b80600101544210156200064b5760405162461bcd60e51b81526020600482015260136024820152724576656e74207374696c6c206f6e676f696e6760681b6044820152606401620005f6565b6000620006588362001158565b9050600081116200069e5760405162461bcd60e51b815260206004820152600f60248201526e2737903b30b634b2103bb4b73732b960891b6044820152606401620005f6565b6003808301805460ff191690556005830182905560008481526020918252604080822084835290925281812082516101208101909352805491929182908290620006e890620023db565b80601f01602080910402602001604051908101604052809291908181526020018280546200071690620023db565b8015620007675780601f106200073b5761010080835404028352916020019162000767565b820191906000526020600020905b8154815290600101906020018083116200074957829003601f168201915b505050505081526020016001820180546200078290620023db565b80601f0160208091040260200160405190810160405280929190818152602001828054620007b090620023db565b8015620008015780601f10620007d55761010080835404028352916020019162000801565b820191906000526020600020905b815481529060010190602001808311620007e357829003601f168201915b505050505081526020016002820180546200081c90620023db565b80601f01602080910402602001604051908101604052809291908181526020018280546200084a90620023db565b80156200089b5780601f106200086f576101008083540402835291602001916200089b565b820191906000526020600020905b8154815290600101906020018083116200087d57829003601f168201915b505050918352505060038201546001600160a01b031660208083019190915260048301546040808401919091526005840154606084015260068401546080840152600784015460ff16151560a084015260088401805482518185028101850190935280835260c09094019391929091908301828280156200094657602002820191906000526020600020905b81546001600160a01b0316815260019091019060200180831162000927575b50505050508152505090506000816000015182600001516040516200096b9062001ef5565b6200097892919062002441565b604051809103906000f08015801562000995573d6000803e3d6000fd5b506006850180546001600160a01b0319166001600160a01b0383161790559050620009c285848362001c63565b604080518481526001600160a01b038316602082015286917f9bbdcafceeb9043b6e16a04299f72661e53572f8026fdc386a0bcc312535718c910160405180910390a25050505050565b62000a1662001e4a565b6000838152600260205260409020600381015460ff1662000a4b5760405162461bcd60e51b8152600401620005f69062002417565b806001015442111562000a8f5760405162461bcd60e51b815260206004820152600b60248201526a115d995b9d08195b99195960aa1b6044820152606401620005f6565b600084815260036020908152604080832086845290915290206007015460ff1662000af25760405162461bcd60e51b815260206004820152601260248201527113595b5948191bd95cdb89dd08195e1a5cdd60721b6044820152606401620005f6565b336000908152600460209081526040808320878452909152812054900362000b33573360009081526004602090815260408083208784529091529020606490555b3360009081526004602090815260408083208784529091529020546001111562000b945760405162461bcd60e51b81526020600482015260116024820152700496e73756666696369656e742043524f5607c1b6044820152606401620005f6565b60008481526005602090815260408083208684528252808320338452909152812054900b1562000bf75760405162461bcd60e51b815260206004820152600d60248201526c105b1c9958591e481d9bdd1959609a1b6044820152606401620005f6565b60008481526003602081815260408084208785529091529091200154336001600160a01b039091160362000c655760405162461bcd60e51b815260206004820152601460248201527343616e6e6f7420766f7465206f776e206d656d6560601b6044820152606401620005f6565b336000908152600460209081526040808320878452909152812080546001929062000c9290849062002489565b909155505060008481526003602090815260408083208684529091529020821562000d295760048101805490600062000ccb836200249f565b9091555050600881018054600181810183556000928352602080842090920180546001600160a01b03191633908117909155888452600583526040808520898652845280852091855292529120805460ff1916909117905562000d6f565b60058101805490600062000d3d836200249f565b9091555050600085815260056020908152604080832087845282528083203384529091529020805460ff191660ff1790555b604080513381528415156020820152859187917f363fc0943082d3ecf63d16b7abd0bb0857a9f0b85fd421e92f74eddb6c3569de910160405180910390a383857f142f8f4372c61f5ba9be390678c2a6da6a44779e98a947e539a432f557de39f58360040154846005015460405162000df2929190918252602082015260400190565b60405180910390a3505062000e0660018055565b505050565b60008060606000806000806000600260008a8152602001908152602001600020905080600001548160010154826002018360030160009054906101000a900460ff16846004015485600501548660060160009054906101000a90046001600160a01b031684805462000e7d90620023db565b80601f016020809104026020016040519081016040528092919081815260200182805462000eab90620023db565b801562000efc5780601f1062000ed05761010080835404028352916020019162000efc565b820191906000526020600020905b81548152906001019060200180831162000ede57829003601f168201915b50505050509450975097509750975097509750975050919395979092949650565b6006602052816000526040600020818154811062000f3a57600080fd5b90600052602060002001600091509150505481565b600360209081526000928352604080842090915290825290208054819062000f7790620023db565b80601f016020809104026020016040519081016040528092919081815260200182805462000fa590620023db565b801562000ff65780601f1062000fca5761010080835404028352916020019162000ff6565b820191906000526020600020905b81548152906001019060200180831162000fd857829003601f168201915b5050505050908060010180546200100d90620023db565b80601f01602080910402602001604051908101604052809291908181526020018280546200103b90620023db565b80156200108c5780601f1062001060576101008083540402835291602001916200108c565b820191906000526020600020905b8154815290600101906020018083116200106e57829003601f168201915b505050505090806002018054620010a390620023db565b80601f0160208091040260200160405190810160405280929190818152602001828054620010d190620023db565b8015620011225780601f10620010f65761010080835404028352916020019162001122565b820191906000526020600020905b8154815290600101906020018083116200110457829003601f168201915b505050600384015460048501546005860154600687015460079097015495966001600160a01b0390931695919450925060ff1688565b6000808060015b6000858152600260205260409020600401548111620011d5576000858152600360209081526040808320848452909152902060040154831015620011c057600085815260036020908152604080832084845290915290206004015492509050805b80620011cc816200249f565b9150506200115f565b509392505050565b620011e762001c07565b620011f3600062001ea5565b565b620011ff62001e4a565b6000848152600260205260409020600381015460ff16620012345760405162461bcd60e51b8152600401620005f69062002417565b8060010154421115620012785760405162461bcd60e51b815260206004820152600b60248201526a115d995b9d08195b99195960aa1b6044820152606401620005f6565b600084511180156200128b575060008351115b620012c95760405162461bcd60e51b815260206004820152600d60248201526c125b9d985b1a59081a5b9c1d5d609a1b6044820152606401620005f6565b33600090815260046020908152604080832088845290915281205490036200130a573360009081526004602090815260408083208884529091529020606490555b336000908152600460209081526040808320888452909152902054603c11156200136b5760405162461bcd60e51b81526020600482015260116024820152700496e73756666696369656e742043524f5607c1b6044820152606401620005f6565b33600090815260046020908152604080832088845290915281208054603c92906200139890849062002489565b90915550506004810154600090620013b2906001620024bb565b9050604051806101200160405280868152602001858152602001848152602001336001600160a01b031681526020016000815260200160008152602001428152602001600115158152602001600067ffffffffffffffff8111156200141b576200141b6200217e565b60405190808252806020026020018201604052801562001445578160200160208202803683370190505b509052600087815260036020908152604080832085845290915290208151819062001471908262002523565b506020820151600182019062001488908262002523565b50604082015160028201906200149f908262002523565b5060608201516003820180546001600160a01b0319166001600160a01b039092169190911790556080820151600482015560a0820151600582015560c0820151600682015560e082015160078201805460ff191691151591909117905561010082015180516200151a91600884019160209091019062001f03565b5050506004820181905560008681526006602090815260408083208054600181018255908452919092200182905551819087907f8f38583813ca602f77ffdaf0f60acbdbba87453b784b93a3633604097dd8090690620015809033908a908a90620025f0565b60405180910390a350506200159460018055565b50505050565b6000620015a662001c07565b60008311620015eb5760405162461bcd60e51b815260206004820152601060248201526f24b73b30b634b210323ab930ba34b7b760811b6044820152606401620005f6565b6000825111620016325760405162461bcd60e51b8152602060048201526011602482015270496e76616c6964206576656e742055524960781b6044820152606401620005f6565b600042836040516020016200164992919062002634565b6040516020818303038152906040528051906020012090506040518060e001604052804281526020018542620016809190620024bb565b8152602001848152602001600115158152602001600081526020016000815260200160006001600160a01b03168152506002600083815260200190815260200160002060008201518160000155602082015181600101556040820151816002019081620016ee919062002523565b50606082015160038201805460ff19169115159190911790556080820151600482015560a0820151600582015560c090910151600690910180546001600160a01b0319166001600160a01b03909216919091179055807fc8ec62cf06565ffeb1b0d4868b3d418ab89fd3b580a8f9f6ae29276b8244281042620017728782620024bb565b8660405162001784939291906200265c565b60405180910390a290505b92915050565b600260208190526000918252604090912080546001820154928201805491939291620017c190620023db565b80601f0160208091040260200160405190810160405280929190818152602001828054620017ef90620023db565b8015620018405780601f10620018145761010080835404028352916020019162001840565b820191906000526020600020905b8154815290600101906020018083116200182257829003601f168201915b50505050600383015460048401546005850154600690950154939460ff909216939092506001600160a01b031687565b6000828152600660209081526040808320805482518185028101850190935280835260609493830182828015620018c757602002820191906000526020600020905b815481526020019060010190808311620018b2575b505050505090506000815167ffffffffffffffff811115620018ed57620018ed6200217e565b60405190808252806020026020018201604052801562001917578160200160208202803683370190505b50905060005b825181101562001979578281815181106200193c576200193c6200267d565b60200260200101518282815181106200195957620019596200267d565b60209081029190910101528062001970816200249f565b9150506200191d565b5060005b815181101562001b7f57600062001996826001620024bb565b90505b825181101562001b69576000861562001a3d57600360008981526020019081526020016000206000858481518110620019d657620019d66200267d565b6020026020010151815260200190815260200160002060040154600360008a8152602001908152602001600020600086868151811062001a1a5762001a1a6200267d565b602002602001015181526020019081526020016000206004015410905062001ac9565b60036000898152602001908152602001600020600085848151811062001a675762001a676200267d565b6020026020010151815260200190815260200160002060060154600360008a8152602001908152602001600020600086868151811062001aab5762001aab6200267d565b60200260200101518152602001908152602001600020600601541090505b801562001b5357600084848151811062001ae75762001ae76200267d565b6020026020010151905084838151811062001b065762001b066200267d565b602002602001015185858151811062001b235762001b236200267d565b6020026020010181815250508085848151811062001b455762001b456200267d565b602002602001018181525050505b508062001b60816200249f565b91505062001999565b508062001b76816200249f565b9150506200197d565b50949350505050565b62001b9262001c07565b6001600160a01b03811662001bf95760405162461bcd60e51b815260206004820152602660248201527f4f776e61626c653a206e6577206f776e657220697320746865207a65726f206160448201526564647265737360d01b6064820152608401620005f6565b62001c048162001ea5565b50565b6000546001600160a01b03163314620011f35760405162461bcd60e51b815260206004820181905260248201527f4f776e61626c653a2063616c6c6572206973206e6f7420746865206f776e65726044820152606401620005f6565b60008381526003602090815260408083208584529091528120829162001c95620186a0670de0b6b3a764000062002693565b90506000606462001ca883601e62002693565b62001cb49190620026ad565b600384015460405163a9059cbb60e01b81526001600160a01b0391821660048201526024810183905291925085169063a9059cbb906044016020604051808303816000875af115801562001d0c573d6000803e3d6000fd5b505050506040513d601f19601f8201168201806040525081019062001d329190620026d0565b506000606462001d4484604662002693565b62001d509190620026ad565b6004850154909150801562001e3f57600062001d6d8284620026ad565b905060005b600887015481101562001e3c57876001600160a01b031663a9059cbb88600801838154811062001da65762001da66200267d565b60009182526020909120015460405160e083901b6001600160e01b03191681526001600160a01b039091166004820152602481018590526044016020604051808303816000875af115801562001e00573d6000803e3d6000fd5b505050506040513d601f19601f8201168201806040525081019062001e269190620026d0565b508062001e33816200249f565b91505062001d72565b50505b505050505050505050565b60026001540362001e9e5760405162461bcd60e51b815260206004820152601f60248201527f5265656e7472616e637947756172643a207265656e7472616e742063616c6c006044820152606401620005f6565b6002600155565b600080546001600160a01b038381166001600160a01b0319831681178455604051919092169283917f8be0079c531659141344cd1fd0a4f28419497f9722a3daafe3b4186f6b6457e09190a35050565b610dad80620026f183390190565b82805482825590600052602060002090810192821562001f5b579160200282015b8281111562001f5b57825182546001600160a01b0319166001600160a01b0390911617825560209092019160019091019062001f24565b5062001f6992915062001f6d565b5090565b5b8082111562001f69576000815560010162001f6e565b6000806040838503121562001f9857600080fd5b50508035926020909101359150565b60005b8381101562001fc457818101518382015260200162001faa565b50506000910152565b6000815180845262001fe781602086016020860162001fa7565b601f01601f19169290920160200192915050565b6000610100808352620020118184018c62001fcd565b9050828103602084015262002027818b62001fcd565b905082810360408401526200203d818a62001fcd565b6001600160a01b039890981660608401525050608081019490945260a084019290925260c0830152151560e0909101529392505050565b6000602082840312156200208757600080fd5b5035919050565b801515811462001c0457600080fd5b600080600060608486031215620020b357600080fd5b83359250602084013591506040840135620020ce816200208e565b809150509250925092565b87815286602082015260e060408201526000620020fa60e083018862001fcd565b951515606083015250608081019390935260a08301919091526001600160a01b031660c0909101529392505050565b80356001600160a01b03811681146200214157600080fd5b919050565b6000806000606084860312156200215c57600080fd5b8335925060208401359150620021756040850162002129565b90509250925092565b634e487b7160e01b600052604160045260246000fd5b600082601f830112620021a657600080fd5b813567ffffffffffffffff80821115620021c457620021c46200217e565b604051601f8301601f19908116603f01168101908282118183101715620021ef57620021ef6200217e565b816040528381528660208588010111156200220957600080fd5b836020870160208301376000602085830101528094505050505092915050565b600080600080608085870312156200224057600080fd5b84359350602085013567ffffffffffffffff808211156200226057600080fd5b6200226e8883890162002194565b945060408701359150808211156200228557600080fd5b620022938883890162002194565b93506060870135915080821115620022aa57600080fd5b50620022b98782880162002194565b91505092959194509250565b60008060408385031215620022d957600080fd5b82359150602083013567ffffffffffffffff811115620022f857600080fd5b620023068582860162002194565b9150509250929050565b600080604083850312156200232457600080fd5b6200232f8362002129565b946020939093013593505050565b600080604083850312156200235157600080fd5b82359150602083013562002365816200208e565b809150509250929050565b6020808252825182820181905260009190848201906040850190845b81811015620023aa578351835292840192918401916001016200238c565b50909695505050505050565b600060208284031215620023c957600080fd5b620023d48262002129565b9392505050565b600181811c90821680620023f057607f821691505b6020821081036200241157634e487b7160e01b600052602260045260246000fd5b50919050565b60208082526010908201526f4576656e74206e6f742061637469766560801b604082015260600190565b60408152600062002456604083018562001fcd565b82810360208401526200246a818562001fcd565b95945050505050565b634e487b7160e01b600052601160045260246000fd5b818103818111156200178f576200178f62002473565b600060018201620024b457620024b462002473565b5060010190565b808201808211156200178f576200178f62002473565b601f82111562000e0657600081815260208120601f850160051c81016020861015620024fa5750805b601f850160051c820191505b818110156200251b5782815560010162002506565b505050505050565b815167ffffffffffffffff8111156200254057620025406200217e565b6200255881620025518454620023db565b84620024d1565b602080601f831160018114620025905760008415620025775750858301515b600019600386901b1c1916600185901b1785556200251b565b600085815260208120601f198616915b82811015620025c157888601518255948401946001909101908401620025a0565b5085821015620025e05787850151600019600388901b60f8161c191681555b5050505050600190811b01905550565b6001600160a01b0384168152606060208201819052600090620026169083018562001fcd565b82810360408401526200262a818562001fcd565b9695505050505050565b828152600082516200264e81602085016020870162001fa7565b919091016020019392505050565b8381528260208201526060604082015260006200246a606083018462001fcd565b634e487b7160e01b600052603260045260246000fd5b80820281158282048414176200178f576200178f62002473565b600082620026cb57634e487b7160e01b600052601260045260246000fd5b500490565b600060208284031215620026e357600080fd5b8151620023d4816200208e56fe60806040523480156200001157600080fd5b5060405162000dad38038062000dad83398101604081905262000034916200022a565b8181600362000044838262000322565b50600462000053828262000322565b5050506200008d336200006b6200009560201b60201c565b6200007890600a62000503565b6200008790620186a06200051b565b6200009a565b50506200054b565b601290565b6001600160a01b038216620000f55760405162461bcd60e51b815260206004820152601f60248201527f45524332303a206d696e7420746f20746865207a65726f206164647265737300604482015260640160405180910390fd5b806002600082825462000109919062000535565b90915550506001600160a01b038216600081815260208181526040808320805486019055518481527fddf252ad1be2c89b69c2b068fc378daa952ba7f163c4a11628f55a4df523b3ef910160405180910390a35050565b505050565b634e487b7160e01b600052604160045260246000fd5b600082601f8301126200018d57600080fd5b81516001600160401b0380821115620001aa57620001aa62000165565b604051601f8301601f19908116603f01168101908282118183101715620001d557620001d562000165565b81604052838152602092508683858801011115620001f257600080fd5b600091505b83821015620002165785820183015181830184015290820190620001f7565b600093810190920192909252949350505050565b600080604083850312156200023e57600080fd5b82516001600160401b03808211156200025657600080fd5b62000264868387016200017b565b935060208501519150808211156200027b57600080fd5b506200028a858286016200017b565b9150509250929050565b600181811c90821680620002a957607f821691505b602082108103620002ca57634e487b7160e01b600052602260045260246000fd5b50919050565b601f8211156200016057600081815260208120601f850160051c81016020861015620002f95750805b601f850160051c820191505b818110156200031a5782815560010162000305565b505050505050565b81516001600160401b038111156200033e576200033e62000165565b62000356816200034f845462000294565b84620002d0565b602080601f8311600181146200038e5760008415620003755750858301515b600019600386901b1c1916600185901b1785556200031a565b600085815260208120601f198616915b82811015620003bf578886015182559484019460019091019084016200039e565b5085821015620003de5787850151600019600388901b60f8161c191681555b5050505050600190811b01905550565b634e487b7160e01b600052601160045260246000fd5b600181815b8085111562000445578160001904821115620004295762000429620003ee565b808516156200043757918102915b93841c939080029062000409565b509250929050565b6000826200045e57506001620004fd565b816200046d57506000620004fd565b81600181146200048657600281146200049157620004b1565b6001915050620004fd565b60ff841115620004a557620004a5620003ee565b50506001821b620004fd565b5060208310610133831016604e8410600b8410161715620004d6575081810a620004fd565b620004e2838362000404565b8060001904821115620004f957620004f9620003ee565b0290505b92915050565b60006200051460ff8416836200044d565b9392505050565b8082028115828204841417620004fd57620004fd620003ee565b80820180821115620004fd57620004fd620003ee565b610852806200055b6000396000f3fe608060405234801561001057600080fd5b50600436106100a95760003560e01c80633950935111610071578063395093511461012357806370a082311461013657806395d89b411461015f578063a457c2d714610167578063a9059cbb1461017a578063dd62ed3e1461018d57600080fd5b806306fdde03146100ae578063095ea7b3146100cc57806318160ddd146100ef57806323b872dd14610101578063313ce56714610114575b600080fd5b6100b66101a0565b6040516100c3919061069c565b60405180910390f35b6100df6100da366004610706565b610232565b60405190151581526020016100c3565b6002545b6040519081526020016100c3565b6100df61010f366004610730565b61024c565b604051601281526020016100c3565b6100df610131366004610706565b610270565b6100f361014436600461076c565b6001600160a01b031660009081526020819052604090205490565b6100b6610292565b6100df610175366004610706565b6102a1565b6100df610188366004610706565b610321565b6100f361019b36600461078e565b61032f565b6060600380546101af906107c1565b80601f01602080910402602001604051908101604052809291908181526020018280546101db906107c1565b80156102285780601f106101fd57610100808354040283529160200191610228565b820191906000526020600020905b81548152906001019060200180831161020b57829003601f168201915b5050505050905090565b60003361024081858561035a565b60019150505b92915050565b60003361025a85828561047e565b6102658585856104f8565b506001949350505050565b600033610240818585610283838361032f565b61028d91906107fb565b61035a565b6060600480546101af906107c1565b600033816102af828661032f565b9050838110156103145760405162461bcd60e51b815260206004820152602560248201527f45524332303a2064656372656173656420616c6c6f77616e63652062656c6f77604482015264207a65726f60d81b60648201526084015b60405180910390fd5b610265828686840361035a565b6000336102408185856104f8565b6001600160a01b03918216600090815260016020908152604080832093909416825291909152205490565b6001600160a01b0383166103bc5760405162461bcd60e51b8152602060048201526024808201527f45524332303a20617070726f76652066726f6d20746865207a65726f206164646044820152637265737360e01b606482015260840161030b565b6001600160a01b03821661041d5760405162461bcd60e51b815260206004820152602260248201527f45524332303a20617070726f766520746f20746865207a65726f206164647265604482015261737360f01b606482015260840161030b565b6001600160a01b0383811660008181526001602090815260408083209487168084529482529182902085905590518481527f8c5be1e5ebec7d5bd14f71427d1e84f3dd0314c0f7b2291e5b200ac8c7c3b925910160405180910390a3505050565b600061048a848461032f565b905060001981146104f257818110156104e55760405162461bcd60e51b815260206004820152601d60248201527f45524332303a20696e73756666696369656e7420616c6c6f77616e6365000000604482015260640161030b565b6104f2848484840361035a565b50505050565b6001600160a01b03831661055c5760405162461bcd60e51b815260206004820152602560248201527f45524332303a207472616e736665722066726f6d20746865207a65726f206164604482015264647265737360d81b606482015260840161030b565b6001600160a01b0382166105be5760405162461bcd60e51b815260206004820152602360248201527f45524332303a207472616e7366657220746f20746865207a65726f206164647260448201526265737360e81b606482015260840161030b565b6001600160a01b038316600090815260208190526040902054818110156106365760405162461bcd60e51b815260206004820152602660248201527f45524332303a207472616e7366657220616d6f756e7420657863656564732062604482015265616c616e636560d01b606482015260840161030b565b6001600160a01b03848116600081815260208181526040808320878703905593871680835291849020805487019055925185815290927fddf252ad1be2c89b69c2b068fc378daa952ba7f163c4a11628f55a4df523b3ef910160405180910390a36104f2565b600060208083528351808285015260005b818110156106c9578581018301518582016040015282016106ad565b506000604082860101526040601f19601f8301168501019250505092915050565b80356001600160a01b038116811461070157600080fd5b919050565b6000806040838503121561071957600080fd5b610722836106ea565b946020939093013593505050565b60008060006060848603121561074557600080fd5b61074e846106ea565b925061075c602085016106ea565b9150604084013590509250925092565b60006020828403121561077e57600080fd5b610787826106ea565b9392505050565b600080604083850312156107a157600080fd5b6107aa836106ea565b91506107b8602084016106ea565b90509250929050565b600181811c908216806107d557607f821691505b6020821081036107f557634e487b7160e01b600052602260045260246000fd5b50919050565b8082018082111561024657634e487b7160e01b600052601160045260246000fdfea26469706673582212201184f1df6187be18fc65c4db95522b1770d159c99f20fccacc52e0f3528f61b864736f6c63430008130033a264697066735822122045c0ecb489cc7c3ece1a7dbf26b58efe05d4c719715ca737c65e3589ccac08c464736f6c63430008130033",
  "linkReferences": {},
  "deployedLinkReferences": {}
}